{
  "_format": "hh-sol-artifact-1",
  "contractName": "SecureFileShare",
  "sourceName": "contracts/SecureFileShare.sol",
  "abi": [
    {
      "anonymous": false,
      "inputs": [
        {
          "indexed": true,
          "internalType": "uint256",
          "name": "fileId",
          "type": "uint256"
        },
        {
          "indexed": true,
          "internalType": "address",
          "name": "revokedFrom",
          "type": "address"
        }
      ],
      "name": "FileRevoked",
      "type": "event"
    },
    {
      "anonymous": false,
      "inputs": [
        {
          "indexed": true,
          "internalType": "uint256",
          "name": "fileId",
          "type": "uint256"
        },
        {
          "indexed": true,
          "internalType": "address",
          "name": "sharedWith",
          "type": "address"
        },
        {
          "indexed": false,
          "internalType": "uint256",
          "name": "expiryTime",
          "type": "uint256"
        }
      ],
      "name": "FileShared",
      "type": "event"
    },
    {
      "anonymous": false,
      "inputs": [
        {
          "indexed": true,
          "internalType": "uint256",
          "name": "fileId",
          "type": "uint256"
        },
        {
          "indexed": false,
          "internalType": "string",
          "name": "fileHash",
          "type": "string"
        },
        {
          "indexed": true,
          "internalType": "address",
          "name": "owner",
          "type": "address"
        }
      ],
      "name": "FileUploaded",
      "type": "event"
    },
    {
      "inputs": [
        {
          "internalType": "uint256",
          "name": "",
          "type": "uint256"
        },
        {
          "internalType": "address",
          "name": "",
          "type": "address"
        }
      ],
      "name": "fileAccess",
      "outputs": [
        {
          "internalType": "bool",
          "name": "isShared",
          "type": "bool"
        },
        {
          "internalType": "uint256",
          "name": "expiryTime",
          "type": "uint256"
        }
      ],
      "stateMutability": "view",
      "type": "function"
    },
    {
      "inputs": [],
      "name": "fileCount",
      "outputs": [
        {
          "internalType": "uint256",
          "name": "",
          "type": "uint256"
        }
      ],
      "stateMutability": "view",
      "type": "function"
    },
    {
      "inputs": [
        {
          "internalType": "uint256",
          "name": "",
          "type": "uint256"
        }
      ],
      "name": "files",
      "outputs": [
        {
          "internalType": "uint256",
          "name": "fileId",
          "type": "uint256"
        },
        {
          "internalType": "string",
          "name": "fileHash",
          "type": "string"
        },
        {
          "internalType": "address",
          "name": "owner",
          "type": "address"
        }
      ],
      "stateMutability": "view",
      "type": "function"
    },
    {
      "inputs": [
        {
          "internalType": "uint256",
          "name": "_fileId",
          "type": "uint256"
        },
        {
          "internalType": "address",
          "name": "_userAddress",
          "type": "address"
        }
      ],
      "name": "revokeFile",
      "outputs": [],
      "stateMutability": "nonpayable",
      "type": "function"
    },
    {
      "inputs": [
        {
          "internalType": "uint256",
          "name": "_fileId",
          "type": "uint256"
        },
        {
          "internalType": "address",
          "name": "_userAddress",
          "type": "address"
        },
        {
          "internalType": "uint256",
          "name": "_expiryTime",
          "type": "uint256"
        }
      ],
      "name": "shareFile",
      "outputs": [],
      "stateMutability": "nonpayable",
      "type": "function"
    },
    {
      "inputs": [
        {
          "internalType": "string",
          "name": "_fileHash",
          "type": "string"
        }
      ],
      "name": "uploadFile",
      "outputs": [
        {
          "internalType": "uint256",
          "name": "",
          "type": "uint256"
        }
      ],
      "stateMutability": "nonpayable",
      "type": "function"
    },
    {
      "inputs": [
        {
          "internalType": "uint256",
          "name": "_fileId",
          "type": "uint256"
        },
        {
          "internalType": "string",
          "name": "_fileHash",
          "type": "string"
        }
      ],
      "name": "verifyFile",
      "outputs": [
        {
          "internalType": "bool",
          "name": "",
          "type": "bool"
        }
      ],
      "stateMutability": "view",
      "type": "function"
    }
  ],
  "bytecode": "0x60806040526000805534801561001457600080fd5b50610b4a806100246000396000f3fe608060405234801561001057600080fd5b506004361061007d5760003560e01c8063b3cca4c81161005b578063b3cca4c814610102578063c344e42114610125578063e37ffc3014610138578063f4c714b41461014b57600080fd5b806343953519146100825780634b9740071461009e578063a19c78b0146100ed575b600080fd5b61008b60005481565b6040519081526020015b60405180910390f35b6100d66100ac3660046106d6565b60026020908152600092835260408084209091529082529020805460019091015460ff9091169082565b604080519215158352602083019190915201610095565b6101006100fb3660046106d6565b61016d565b005b6101156101103660046107a5565b610231565b6040519015158152602001610095565b6101006101333660046107ec565b6103aa565b61008b610146366004610821565b610541565b61015e61015936600461085e565b610607565b604051610095939291906108c7565b60008281526001602052604090206002015482906001600160a01b031633146101d25760405162461bcd60e51b81526020600482015260126024820152712737ba103a3432903334b6329037bbb732b960711b60448201526064015b60405180910390fd5b60008381526002602090815260408083206001600160a01b0386168085529252808320805460ff1916815560010183905551909185917f53be2a1015668d9e283e02d3191e8adf13d44388156c7fb0daba4517da7a29b19190a3505050565b60008281526001602052604081205481036102845760405162461bcd60e51b8152602060048201526013602482015272119a5b1948191bd95cc81b9bdd08195e1a5cdd606a1b60448201526064016101c9565b6000838152600160209081526040808320600290810154908352818420338086529352908320546001600160a01b03909116909114919060ff1680156102e55750600085815260026020908152604080832033845290915290206001015442105b905081806102f05750805b61033c5760405162461bcd60e51b815260206004820152601d60248201527f4e6f2061636365737320746f2076657269667920746869732066696c6500000060448201526064016101c9565b8360405160200161034d91906108f8565b6040516020818303038152906040528051906020012060016000878152602001908152602001600020600101604051602001610389919061094e565b60405160208183030381529060405280519060200120149250505092915050565b60008381526001602052604090206002015483906001600160a01b0316331461040a5760405162461bcd60e51b81526020600482015260126024820152712737ba103a3432903334b6329037bbb732b960711b60448201526064016101c9565b4282116104635760405162461bcd60e51b815260206004820152602160248201527f4578706972792074696d65206d75737420626520696e207468652066757475726044820152606560f81b60648201526084016101c9565b336001600160a01b038416036104bb5760405162461bcd60e51b815260206004820152601a60248201527f43616e6e6f74207368617265207769746820796f757273656c6600000000000060448201526064016101c9565b604080518082018252600180825260208083018681526000898152600283528581206001600160a01b038a16808352908452908690209451855460ff191690151517855590519390920192909255915184815286917fab6372084eb451757d9c49ea0fb40d5897d76b26a38c712db599e8ce1230516e910160405180910390a350505050565b600080548180610550836109c4565b90915550506040805160608101825260008054808352602080840187815233858701529183526001908190529390912082518155905191929091908201906105989082610a3a565b5060409182015160029190910180546001600160a01b0319166001600160a01b0390921691909117905560005490513391907f6b91b014a57030f2c2db5fca6b08916e721a712f2510c3069caef5f5a6d33604906105f7908690610afa565b60405180910390a3505060005490565b60016020819052600091825260409091208054918101805461062890610914565b80601f016020809104026020016040519081016040528092919081815260200182805461065490610914565b80156106a15780601f10610676576101008083540402835291602001916106a1565b820191906000526020600020905b81548152906001019060200180831161068457829003601f168201915b505050600290930154919250506001600160a01b031683565b80356001600160a01b03811681146106d157600080fd5b919050565b600080604083850312156106e957600080fd5b823591506106f9602084016106ba565b90509250929050565b634e487b7160e01b600052604160045260246000fd5b600082601f83011261072957600080fd5b813567ffffffffffffffff8082111561074457610744610702565b604051601f8301601f19908116603f0116810190828211818310171561076c5761076c610702565b8160405283815286602085880101111561078557600080fd5b836020870160208301376000602085830101528094505050505092915050565b600080604083850312156107b857600080fd5b82359150602083013567ffffffffffffffff8111156107d657600080fd5b6107e285828601610718565b9150509250929050565b60008060006060848603121561080157600080fd5b83359250610811602085016106ba565b9150604084013590509250925092565b60006020828403121561083357600080fd5b813567ffffffffffffffff81111561084a57600080fd5b61085684828501610718565b949350505050565b60006020828403121561087057600080fd5b5035919050565b60005b8381101561089257818101518382015260200161087a565b50506000910152565b600081518084526108b3816020860160208601610877565b601f01601f19169290920160200192915050565b8381526060602082015260006108e0606083018561089b565b905060018060a01b0383166040830152949350505050565b6000825161090a818460208701610877565b9190910192915050565b600181811c9082168061092857607f821691505b60208210810361094857634e487b7160e01b600052602260045260246000fd5b50919050565b600080835461095c81610914565b600182811680156109745760018114610989576109b8565b60ff19841687528215158302870194506109b8565b8760005260208060002060005b858110156109af5781548a820152908401908201610996565b50505082870194505b50929695505050505050565b6000600182016109e457634e487b7160e01b600052601160045260246000fd5b5060010190565b601f821115610a3557600081815260208120601f850160051c81016020861015610a125750805b601f850160051c820191505b81811015610a3157828155600101610a1e565b5050505b505050565b815167ffffffffffffffff811115610a5457610a54610702565b610a6881610a628454610914565b846109eb565b602080601f831160018114610a9d5760008415610a855750858301515b600019600386901b1c1916600185901b178555610a31565b600085815260208120601f198616915b82811015610acc57888601518255948401946001909101908401610aad565b5085821015610aea5787850151600019600388901b60f8161c191681555b5050505050600190811b01905550565b602081526000610b0d602083018461089b565b939250505056fea2646970667358221220df6dcec610a6ca2098626e9143947e6879cf7dcaad2c5d6e305270456053e18664736f6c63430008130033",
  "linkReferences": {},
  "deployedLinkReferences": {}
}